{
  "contractName": "CountdownButton",
  "abi": [
    {
      "inputs": [
        {
          "internalType": "contract TestToken",
          "name": "_token",
          "type": "address"
        },
        {
          "internalType": "uint256",
          "name": "_unluckPeriod",
          "type": "uint256"
        },
        {
          "internalType": "uint256",
          "name": "_startAt",
          "type": "uint256"
        }
      ],
      "stateMutability": "nonpayable",
      "type": "constructor"
    },
    {
      "anonymous": false,
      "inputs": [
        {
          "indexed": false,
          "internalType": "uint256",
          "name": "pcount",
          "type": "uint256"
        }
      ],
      "name": "Create",
      "type": "event"
    },
    {
      "inputs": [],
      "name": "count",
      "outputs": [
        {
          "internalType": "uint256",
          "name": "",
          "type": "uint256"
        }
      ],
      "stateMutability": "view",
      "type": "function",
      "constant": true
    },
    {
      "inputs": [],
      "name": "countdownEnd",
      "outputs": [
        {
          "internalType": "uint256",
          "name": "",
          "type": "uint256"
        }
      ],
      "stateMutability": "view",
      "type": "function",
      "constant": true
    },
    {
      "inputs": [],
      "name": "countdownStart",
      "outputs": [
        {
          "internalType": "uint256",
          "name": "",
          "type": "uint256"
        }
      ],
      "stateMutability": "view",
      "type": "function",
      "constant": true
    },
    {
      "inputs": [],
      "name": "newCountdownEnd",
      "outputs": [
        {
          "internalType": "uint256",
          "name": "",
          "type": "uint256"
        }
      ],
      "stateMutability": "view",
      "type": "function",
      "constant": true
    },
    {
      "inputs": [],
      "name": "participantAddress",
      "outputs": [
        {
          "internalType": "address",
          "name": "",
          "type": "address"
        }
      ],
      "stateMutability": "view",
      "type": "function",
      "constant": true
    },
    {
      "inputs": [
        {
          "internalType": "uint256",
          "name": "",
          "type": "uint256"
        }
      ],
      "name": "participants",
      "outputs": [
        {
          "internalType": "uint256",
          "name": "pId",
          "type": "uint256"
        },
        {
          "internalType": "address",
          "name": "pAddress",
          "type": "address"
        },
        {
          "internalType": "uint256",
          "name": "balance",
          "type": "uint256"
        },
        {
          "internalType": "uint256",
          "name": "joinAt",
          "type": "uint256"
        },
        {
          "internalType": "bool",
          "name": "choice",
          "type": "bool"
        },
        {
          "internalType": "bool",
          "name": "isLeader",
          "type": "bool"
        }
      ],
      "stateMutability": "view",
      "type": "function",
      "constant": true
    },
    {
      "inputs": [],
      "name": "reset",
      "outputs": [
        {
          "internalType": "bool",
          "name": "",
          "type": "bool"
        }
      ],
      "stateMutability": "view",
      "type": "function",
      "constant": true
    },
    {
      "inputs": [],
      "name": "state",
      "outputs": [
        {
          "internalType": "enum CountdownButton.State",
          "name": "",
          "type": "uint8"
        }
      ],
      "stateMutability": "view",
      "type": "function",
      "constant": true
    },
    {
      "inputs": [],
      "name": "token",
      "outputs": [
        {
          "internalType": "contract TestToken",
          "name": "",
          "type": "address"
        }
      ],
      "stateMutability": "view",
      "type": "function",
      "constant": true
    },
    {
      "inputs": [],
      "name": "totalPrize",
      "outputs": [
        {
          "internalType": "uint256",
          "name": "",
          "type": "uint256"
        }
      ],
      "stateMutability": "view",
      "type": "function",
      "constant": true
    },
    {
      "inputs": [],
      "name": "unlockPeriod",
      "outputs": [
        {
          "internalType": "uint256",
          "name": "",
          "type": "uint256"
        }
      ],
      "stateMutability": "view",
      "type": "function",
      "constant": true
    },
    {
      "inputs": [],
      "name": "winnerAddress",
      "outputs": [
        {
          "internalType": "address",
          "name": "",
          "type": "address"
        }
      ],
      "stateMutability": "view",
      "type": "function",
      "constant": true
    },
    {
      "inputs": [
        {
          "internalType": "bool",
          "name": "_choice",
          "type": "bool"
        }
      ],
      "name": "onClick",
      "outputs": [],
      "stateMutability": "nonpayable",
      "type": "function"
    },
    {
      "inputs": [],
      "name": "getCountdown",
      "outputs": [
        {
          "internalType": "uint256",
          "name": "",
          "type": "uint256"
        }
      ],
      "stateMutability": "view",
      "type": "function",
      "constant": true
    },
    {
      "inputs": [],
      "name": "winner",
      "outputs": [],
      "stateMutability": "nonpayable",
      "type": "function"
    }
  ],
  "bytecode": "0x60806040523480156200001157600080fd5b50604051620013ec380380620013ec8339818101604052810190620000379190620001b1565b82600060016101000a81548173ffffffffffffffffffffffffffffffffffffffff021916908373ffffffffffffffffffffffffffffffffffffffff1602179055508160058190555080600681905550620000a4600654600554620000e060201b62000a9b1790919060201c565b60078190555060008060006101000a81548160ff02191690836002811115620000d257620000d16200020d565b5b0217905550505050620002c8565b60008183620000f091906200026b565b905092915050565b600080fd5b600073ffffffffffffffffffffffffffffffffffffffff82169050919050565b60006200012a82620000fd565b9050919050565b60006200013e826200011d565b9050919050565b620001508162000131565b81146200015c57600080fd5b50565b600081519050620001708162000145565b92915050565b6000819050919050565b6200018b8162000176565b81146200019757600080fd5b50565b600081519050620001ab8162000180565b92915050565b600080600060608486031215620001cd57620001cc620000f8565b5b6000620001dd868287016200015f565b9350506020620001f0868287016200019a565b925050604062000203868287016200019a565b9150509250925092565b7f4e487b7100000000000000000000000000000000000000000000000000000000600052602160045260246000fd5b7f4e487b7100000000000000000000000000000000000000000000000000000000600052601160045260246000fd5b6000620002788262000176565b9150620002858362000176565b9250827fffffffffffffffffffffffffffffffffffffffffffffffffffffffffffffffff03821115620002bd57620002bc6200023c565b5b828201905092915050565b61111480620002d86000396000f3fe608060405234801561001057600080fd5b50600436106100f55760003560e01c8063c19d93fb11610097578063e1660dbd11610066578063e1660dbd14610245578063ed7a4e0b14610263578063f673d6e214610281578063fc0c546a1461029f576100f5565b8063c19d93fb146101e3578063d45dcca014610201578063d826f88f1461021d578063dfbf53ae1461023b576100f5565b806335c1d349116100d357806335c1d3491461015457806359ff6ba81461018957806382b1ad50146101a7578063b37a4d01146101c5576100f5565b806306661abd146100fa57806310b2740a1461011857806320d3a0b414610136575b600080fd5b6101026102bd565b60405161010f9190610ae0565b60405180910390f35b6101206102c3565b60405161012d9190610ae0565b60405180910390f35b61013e6102c9565b60405161014b9190610ae0565b60405180910390f35b61016e60048036038101906101699190610b2c565b6102cf565b60405161018096959493929190610bb5565b60405180910390f35b610191610345565b60405161019e9190610c16565b60405180910390f35b6101af61036b565b6040516101bc9190610ae0565b60405180910390f35b6101cd610371565b6040516101da9190610ae0565b60405180910390f35b6101eb610377565b6040516101f89190610ca8565b60405180910390f35b61021b60048036038101906102169190610cef565b610388565b005b610225610708565b6040516102329190610d1c565b60405180910390f35b61024361071b565b005b61024d6109e8565b60405161025a9190610ae0565b60405180910390f35b61026b610a49565b6040516102789190610c16565b60405180910390f35b610289610a6f565b6040516102969190610ae0565b60405180910390f35b6102a7610a75565b6040516102b49190610d96565b60405180910390f35b60035481565b60065481565b60055481565b600a6020528060005260406000206000915090508060000154908060010160009054906101000a900473ffffffffffffffffffffffffffffffffffffffff16908060020154908060030154908060040160009054906101000a900460ff16908060040160019054906101000a900460ff16905086565b600160009054906101000a900473ffffffffffffffffffffffffffffffffffffffff1681565b60045481565b60075481565b60008054906101000a900460ff1681565b600080600281111561039d5761039c610c31565b5b60008054906101000a900460ff1660028111156103bd576103bc610c31565b5b146103c757600080fd5b33600160006101000a81548173ffffffffffffffffffffffffffffffffffffffff021916908373ffffffffffffffffffffffffffffffffffffffff160217905550600754421061044c576040517f08c379a000000000000000000000000000000000000000000000000000000000815260040161044390610e0e565b60405180910390fd5b60016003600082825461045f9190610e5d565b925050819055508115610704576000600a6000600354815260200190815260200160002090506003548160000181905550338160010160006101000a81548173ffffffffffffffffffffffffffffffffffffffff021916908373ffffffffffffffffffffffffffffffffffffffff160217905550600060019054906101000a900473ffffffffffffffffffffffffffffffffffffffff1673ffffffffffffffffffffffffffffffffffffffff166370a08231336040518263ffffffff1660e01b815260040161052e9190610c16565b602060405180830381865afa15801561054b573d6000803e3d6000fd5b505050506040513d601f19601f8201168201806040525081019061056f9190610ec8565b8160020181905550428160030181905550828160040160006101000a81548160ff02191690831515021790555060018160040160016101000a81548160ff021916908315150217905550600060019054906101000a900473ffffffffffffffffffffffffffffffffffffffff1673ffffffffffffffffffffffffffffffffffffffff166323b872dd33306801158e460913d000006040518463ffffffff1660e01b815260040161062193929190610f30565b6020604051808303816000875af1158015610640573d6000803e3d6000fd5b505050506040513d601f19601f820116820180604052508101906106649190610f7c565b506001600860006101000a81548160ff0219169083151502179055506106c36106b06102586106a28460030154600754610ab190919063ffffffff16565b610ab190919063ffffffff16565b8260030154610a9b90919063ffffffff16565b6009819055507f07eac9a0695a188fe9d6fd680bcbbbe39041fb114d5d7ac11252401391f793076003546040516106fa9190610ae0565b60405180910390a1505b5050565b600860009054906101000a900460ff1681565b600954421015610760576040517f08c379a000000000000000000000000000000000000000000000000000000000815260040161075790610ff5565b60405180910390fd5b6000600a600060035481526020019081526020016000206040518060c0016040529081600082015481526020016001820160009054906101000a900473ffffffffffffffffffffffffffffffffffffffff1673ffffffffffffffffffffffffffffffffffffffff1673ffffffffffffffffffffffffffffffffffffffff16815260200160028201548152602001600382015481526020016004820160009054906101000a900460ff161515151581526020016004820160019054906101000a900460ff16151515158152505090508060a00151156109e5578060200151600260006101000a81548173ffffffffffffffffffffffffffffffffffffffff021916908373ffffffffffffffffffffffffffffffffffffffff160217905550600060019054906101000a900473ffffffffffffffffffffffffffffffffffffffff1673ffffffffffffffffffffffffffffffffffffffff166370a08231306040518263ffffffff1660e01b81526004016108d89190610c16565b602060405180830381865afa1580156108f5573d6000803e3d6000fd5b505050506040513d601f19601f820116820180604052508101906109199190610ec8565b600481905550600060019054906101000a900473ffffffffffffffffffffffffffffffffffffffff1673ffffffffffffffffffffffffffffffffffffffff1663a9059cbb600260009054906101000a900473ffffffffffffffffffffffffffffffffffffffff166004546040518363ffffffff1660e01b81526004016109a0929190611015565b6020604051808303816000875af11580156109bf573d6000803e3d6000fd5b505050506040513d601f19601f820116820180604052508101906109e39190610f7c565b505b50565b6000600954421115610a2f576040517f08c379a0000000000000000000000000000000000000000000000000000000008152600401610a269061108a565b60405180910390fd5b610a4442600954610ab190919063ffffffff16565b905090565b600260009054906101000a900473ffffffffffffffffffffffffffffffffffffffff1681565b60095481565b600060019054906101000a900473ffffffffffffffffffffffffffffffffffffffff1681565b60008183610aa99190610e5d565b905092915050565b60008183610abf91906110aa565b905092915050565b6000819050919050565b610ada81610ac7565b82525050565b6000602082019050610af56000830184610ad1565b92915050565b600080fd5b610b0981610ac7565b8114610b1457600080fd5b50565b600081359050610b2681610b00565b92915050565b600060208284031215610b4257610b41610afb565b5b6000610b5084828501610b17565b91505092915050565b600073ffffffffffffffffffffffffffffffffffffffff82169050919050565b6000610b8482610b59565b9050919050565b610b9481610b79565b82525050565b60008115159050919050565b610baf81610b9a565b82525050565b600060c082019050610bca6000830189610ad1565b610bd76020830188610b8b565b610be46040830187610ad1565b610bf16060830186610ad1565b610bfe6080830185610ba6565b610c0b60a0830184610ba6565b979650505050505050565b6000602082019050610c2b6000830184610b8b565b92915050565b7f4e487b7100000000000000000000000000000000000000000000000000000000600052602160045260246000fd5b60038110610c7157610c70610c31565b5b50565b6000819050610c8282610c60565b919050565b6000610c9282610c74565b9050919050565b610ca281610c87565b82525050565b6000602082019050610cbd6000830184610c99565b92915050565b610ccc81610b9a565b8114610cd757600080fd5b50565b600081359050610ce981610cc3565b92915050565b600060208284031215610d0557610d04610afb565b5b6000610d1384828501610cda565b91505092915050565b6000602082019050610d316000830184610ba6565b92915050565b6000819050919050565b6000610d5c610d57610d5284610b59565b610d37565b610b59565b9050919050565b6000610d6e82610d41565b9050919050565b6000610d8082610d63565b9050919050565b610d9081610d75565b82525050565b6000602082019050610dab6000830184610d87565b92915050565b600082825260208201905092915050565b7f43414e4e4f542050415254494349504154450000000000000000000000000000600082015250565b6000610df8601283610db1565b9150610e0382610dc2565b602082019050919050565b60006020820190508181036000830152610e2781610deb565b9050919050565b7f4e487b7100000000000000000000000000000000000000000000000000000000600052601160045260246000fd5b6000610e6882610ac7565b9150610e7383610ac7565b9250827fffffffffffffffffffffffffffffffffffffffffffffffffffffffffffffffff03821115610ea857610ea7610e2e565b5b828201905092915050565b600081519050610ec281610b00565b92915050565b600060208284031215610ede57610edd610afb565b5b6000610eec84828501610eb3565b91505092915050565b6000819050919050565b6000610f1a610f15610f1084610ef5565b610d37565b610ac7565b9050919050565b610f2a81610eff565b82525050565b6000606082019050610f456000830186610b8b565b610f526020830185610b8b565b610f5f6040830184610f21565b949350505050565b600081519050610f7681610cc3565b92915050565b600060208284031215610f9257610f91610afb565b5b6000610fa084828501610f67565b91505092915050565b7f2052455741524453204953204c4f434b45440000000000000000000000000000600082015250565b6000610fdf601283610db1565b9150610fea82610fa9565b602082019050919050565b6000602082019050818103600083015261100e81610fd2565b9050919050565b600060408201905061102a6000830185610b8b565b6110376020830184610ad1565b9392505050565b7f436f756e74646f776e206973206f766572000000000000000000000000000000600082015250565b6000611074601183610db1565b915061107f8261103e565b602082019050919050565b600060208201905081810360008301526110a381611067565b9050919050565b60006110b582610ac7565b91506110c083610ac7565b9250828210156110d3576110d2610e2e565b5b82820390509291505056fea26469706673582212204bb9ab2ca29f4d4495c4046a22d1b95adf837721a1743eb92b7f5b89d0ad7b3f64736f6c634300080b0033",
  "immutableReferences": {},
  "source": "// SPDX-License-Identifier: MIT\npragma solidity >=0.4.22 <0.9.0;\n\nimport \"./TestToken.sol\";\nimport \"@openzeppelin/contracts/utils/math/SafeMath.sol\";\n\ncontract CountdownButton {\n    using SafeMath for uint256;\n\n    //variables\n\n    enum State {\n        START,\n        COUNTDOWN,\n        COUNTDOWN_EXPIRED\n    }\n    State public state;\n\n    struct Participant {\n        uint256 pId;\n        address pAddress;\n        uint256 balance;\n        uint256 joinAt;\n        bool choice;\n        bool isLeader;\n    }\n\n    TestToken public token;\n\n    address public participantAddress;\n    address public winnerAddress;\n    uint256 public count;\n    uint256 public totalPrize;\n\n    uint256 public unlockPeriod;\n    uint256 public countdownStart;\n    uint256 public countdownEnd;\n\n    bool public reset;\n    uint256 public newCountdownEnd;\n\n    //mapping\n    mapping(uint256 => Participant) public participants;\n    // mapping(address => Participant) public participants;\n\n    //modifiers\n    modifier inState(State _state) {\n        require(state == _state);\n        _;\n    }\n\n    //events\n    event Create(uint256 pcount);\n\n    //functions\n    constructor(\n        TestToken _token,\n        uint256 _unluckPeriod,\n        uint256 _startAt\n    ) {\n        token = _token;\n        unlockPeriod = _unluckPeriod;\n        countdownStart = _startAt;\n        countdownEnd = unlockPeriod.add(countdownStart);\n        state = State.START;\n    }\n\n    function onClick(bool _choice) public inState(State.START) {\n        participantAddress = msg.sender;\n        require(block.timestamp < countdownEnd, \"CANNOT PARTICIPATE\");\n        count += 1;\n\n        if (_choice) {\n            // participants[count] = Participant({\n            //     pId: count,\n            //     pAddress: msg.sender,\n            //     balance: token.balanceOf(msg.sender),\n            //     joinAt: block.timestamp,\n            //     choice: _choice,\n            //     isLeader: true\n            // });\n            Participant storage p = participants[count];\n            p.pId = count;\n            p.pAddress = msg.sender;\n            p.balance = token.balanceOf(msg.sender);\n            p.joinAt = block.timestamp;\n            p.choice = _choice;\n            p.isLeader = true;\n\n            token.transferFrom(msg.sender, address(this), 20000000000000000000);\n\n            reset = true;\n            //-10 min\n            newCountdownEnd = p.joinAt.add(countdownEnd.sub(p.joinAt).sub(600));\n\n            emit Create(count);\n        }\n        // state = State.COUNTDOWN;\n    }\n\n    function getCountdown() public view returns (uint256) {\n        require(block.timestamp <= newCountdownEnd, \"Countdown is over\");\n        return newCountdownEnd.sub(block.timestamp);\n    }\n\n    function winner() public /**inState(State.COUNTDOWN_EXPIRED)  */\n    {\n        require(block.timestamp >= newCountdownEnd, \" REWARDS IS LOCKED\");\n        //declare winner\n        Participant memory p = participants[count];\n        if (p.isLeader) {\n            winnerAddress = p.pAddress;\n            //withdraw the price\n            totalPrize = token.balanceOf(address(this));\n            token.transfer(winnerAddress, totalPrize);\n        }\n    }\n}\n",
  "sourcePath": "/home/anisha/Desktop/state-channel/contracts/CountdownButton.sol",
  "compiler": {
    "name": "solc",
    "version": "0.8.11+commit.d7f03943.Emscripten.clang"
  },
  "schemaVersion": "3.4.4",
  "updatedAt": "2022-08-01T19:18:41.160Z",
  "networkType": "ethereum",
  "devdoc": {
    "kind": "dev",
    "methods": {},
    "version": 1
  },
  "userdoc": {
    "kind": "user",
    "methods": {},
    "version": 1
  }
}